:020000040800F2
:10000000FCFF0020DD130000D5130000D513000015
:10001000D5130000D5130000D5130000D513000040
:10002000D5130000D5130000D5130000D513000030
:10003000D5130000D5130000D5130000D513000020
:10004000D5130000D5130000D5130000D513000010
:10005000D5130000D5130000D5130000D513000000
:10006000D5130000D5130000D5130000D5130000F0
:10007000D5130000D5130000D5130000D5130000E0
:10008000D5130000D5130000D5130000D5130000D0
:10009000D5130000D5130000D5130000D5130000C0
:1000A000D5130000D5130000D5130000D5130000B0
:1000B000D5130000D5130000D5130000D5130000A0
:1000C000D5130000D5130000D5130000D513000090
:1000D000D5130000D5130000D5130000D513000080
:1000E000D5130000D5130000D5130000D513000070
:1000F000D5130000D5130000D5130000D513000060
:10010000D5130000D5130000D5130000D51300004F
:10011000D5130000D5130000D5130000D51300003F
:10012000D5130000D5130000D5130000D51300002F
:10013000D5130000D5130000D5130000D51300001F
:10014000D5130000D5130000D5130000D51300000F
:1001500001480068704700BF7800002083B0CDF8E8
:1001600000E000F0FF031A09104603F00F021346E7
:1001700014E0194A02921FE0184A02921CE0184A41
:10018000029219E0174A029216E0174A029213E00F
:10019000164A029210E0164A02920DE00028E8D0BA
:1001A0000128E9D00228EAD00328EBD00428ECD0BB
:1001B0000528EDD00628EED0012212B29A40ADF803
:1001C000042002980A46BDF8041000F06FFADDF82A
:1001D00000E003B0704700BF00080140000C014080
:1001E000001001400014014000180140001C0140B3
:1001F0000020014082B0CDF800E00346194601918D
:10020000FFF7A6FF40F2E83100FB01F201990A6016
:100210001F490978C1F30311C8B21E4909180878AB
:10022000C0B21A1D1968C140116019490988C1F38B
:10023000022188B2174909180878C0B203F20802EF
:10024000191D0968C140116011490988C1F3C22113
:1002500088B2104909180878C0B203F20C02191DBF
:100260000968C14011600A490988C1F3813188B227
:10027000094909180978C8B203F2100203F20C0107
:100280000968B1FBF0F11160DDF800E002B07047E1
:1002900004100240431700006C13000081B0CDF839
:1002A00000E0012252B23E490A6000F268010B6888
:1002B0006FF0006103EA0102144603F00061C90E09
:1002C0000B4602F00041B1F1004F02D135490A68F6
:1002D00001E035490A6804F47021090C0E464FF616
:1002E000FF7104EA01010D4604F44011B1F5401F0D
:1002F0000DD16FF0706102EA01010E462A490A68C9
:100300006FF070610A4028490A60324616E004F432
:100310008011B1F5801F09D14FF00301B140C943ED
:1003200002EA010141F070610A4607E0610D09012E
:1003300005FA01F1C9430A4042F070622BB1610D28
:10034000090105FA01F10A43FFE704F00041B1F1A8
:10035000004F02D113490A6001E013490A6040F2DC
:10036000000A81464FEA8A0109EB01010968B1F1EF
:10037000FF3F10D009F134014FEA8A03C918096818
:100380000A4609EB0301096808461146FFF7E6FE35
:100390000AF1010AE6E7DDF800E001B0704700BFAE
:1003A000000342421C0001400400014081B0194991
:1003B00000EA0101084600220EE0042022E00820A5
:1003C00020E010201EE020201CE040201AE08020C9
:1003D00018E040F2001015E00F498842EDD00F49B7
:1003E0008842ECD00E498842EBD00E498842EAD0D0
:1003F0000D498842E9D00D498842E8D00C4988422D
:10040000E7D010460B49096841EA000209490A6031
:1004100001B0704700FCFFFF00080140000C0140E4
:10042000001001400014014000180140001C014070
:10043000002001401810024081B00268C2F3401150
:1004400001B9FAE7011D096888B201B07047FFFFE2
:1004500081B00168C1F3401001B0704781B00168FC
:10046000C1F3801001B0704789B0CDF800E0834639
:1004700098B28C46BDF824100A9E04ACADF8041066
:10048000ADF808002046FFF7B5FEBDF80800BDF83E
:100490000410644CA34512D101256DB2624C256055
:1004A000624D634C2560634D634C2560634D644C25
:1004B0002560644D644C2560079C039456E0634CB2
:1004C000A34512D101256DB2614C2560614D584C98
:1004D0002560614D584C2560604D594C2560604D3C
:1004E000594C2560069C039440E05E4CA34512D114
:1004F00001256DB25C4C25605C4D4D4C25605C4D1A
:100500004D4C25605B4D4E4C25605B4D4E4C25603F
:10051000069C03942AE0594CA34512D101256DB2E3
:10052000574C2560574D424C2560574D424C256035
:10053000564D434C2560564D434C2560069C039414
:1005400014E0544CA34511D101256DB2524C2560E5
:10055000524D374C2560524D374C2560514D384C2B
:100560002560514D384C2560069C0394ADF804106D
:10057000ADF808003046FFF791FEBDF80800BDF861
:1005800004100BF1100500242C600BF110052C68F1
:100590000C432C600BF10C0500242C6018B140F4C6
:1005A000806080B2FFE70BF10C052C6804432C60DF
:1005B0000BF10C060125346865F34D3434600BF102
:1005C0000C060125346865F3C30434600BF10C0696
:1005D0000125346865F3820434600BF114050024AE
:1005E0002C60039D192465434FEA8C04B5FBF4F796
:1005F0006424B7FBF4F42601350964246C433C1BE6
:10060000240104F232056424B5FBF4F404F00F0471
:1006100046EA04040BF10805A4B22C60DDF800E002
:1006200009B070470038014038034242D109000048
:100630007C00002069090000800000209D09000066
:100640008400002051090000880000200044004080
:10065000C4034242B50900001D090000050900005D
:10066000F10A000000480040C8034242E9080000C7
:10067000B10A0000210B0000990A0000004C004064
:10068000CC03424235090000210A0000390A00006B
:10069000810A000000500040D0034242810900005E
:1006A000690A0000510A0000090B000081B0CDF872
:1006B00000E08CB21546774B00EA03031E4618464D
:1006C000FFF774FEB4F1FF0F0CD1734B9D4203D1C1
:1006D0004FF033333360D9E0422D03D14FF0443330
:1006E0003360D3E04FF6FF739C4214D16A4B9D42B6
:1006F00007D14FF033333360341D4FF03333236071
:10070000C4E0422D07D14FF044333360341D4FF025
:1007100044332360BAE00021002005F001030BB14F
:1007200000211DE005F0020333B105F4C0730BB1E5
:10073000082100E0042113E005F0040333B105F0C3
:1007400020030BB1042100E0002109E005F00803BB
:1007500033B105F020030BB10C2100E00821FFE7C5
:100760004E4B05EA03030BB1032009E005F40073C7
:100770000BB1022004E005F480630BB10120FFE718
:1007800005F00C030BB10143FFE704F0FF039BB23C
:10079000002B3BD0376800201FFA84F832462E46E3
:1007A00008282CD24FF0010303FA00F408EA0403EE
:1007B000A34222D185004FF00F03AB40DB4307EA91
:1007C000030401FA05F344EA03031D4606F48173AA
:1007D000B3F5817F05D102F214044FF00103834089
:1007E000236006F08203822B05D102F210044FF041
:1007F0000103834023602F46FFE7401CD0E71760CA
:100800001FFA88F00F463146164602E00F46294689
:10081000A0B2B0F1FF0F39D9331DD3F80080002208
:10082000082A30D202F208044FF0010303FA04F45C
:1008300000EA0403A34224D195004FF00F03AB401C
:10084000DB4308EA030807FA05F348EA030801F462
:100850008173B3F5817F07D106F2140502F2080413
:100860004FF00103A3402B6001F08203822B07D1DC
:1008700006F2100502F208044FF00103A3402B60BA
:10088000FFE7521CCCE7331DC3F80080DDF800E021
:1008900001B0704700FCFFFF1400080000080800CA
:1008A00081B0ADF800100146BDF800000B68C3F33D
:1008B000C01202B9FAE70A1D106001B07047FFFFCD
:1008C00081B0CDF800E0019D2C4610B408B493B27D
:1008D0008AB201460348FFF7C7FD02B0DDF800E029
:1008E00001B070470038014081B0CDF800E081B21E
:1008F0000348FFF7D5FFDDF800E001B0704700BF07
:100900000048004081B0CDF800E00348FFF7A0FDAB
:10091000DDF800E001B070470044004081B0CDF840
:1009200000E00348FFF788FDDDF800E001B0704704
:100930000044004081B0CDF800E081B20348FFF7E9
:10094000AFFFDDF800E001B0704700BF004C004091
:1009500081B0CDF800E00348FFF780FDDDF800E04E
:1009600001B070470038014081B0CDF800E0034885
:10097000FFF762FDDDF800E001B07047003801408C
:1009800081B0CDF800E081B20348FFF789FFDDF8C0
:1009900000E001B0704700BF0050004081B0CDF8CA
:1009A00000E00348FFF754FDDDF800E001B07047B8
:1009B0000038014081B0CDF800E081B20348FFF774
:1009C0006FFFDDF800E001B0704700BF0044004059
:1009D00081B0CDF800E081B20348FFF761FFDDF898
:1009E00000E001B0704700BF0038014081B0CDF891
:1009F00000E04FF0420289B2FFF758FEDDF800E058
:100A000001B0704781B0CDF800E0044A89B2FFF729
:100A10004DFEDDF800E001B0704700BF1400080093
:100A200081B0CDF800E00348FFF706FDDDF800E0F7
:100A300001B07047004C004081B0CDF800E00348A1
:100A4000FFF706FDDDF800E001B07047004C004004
:100A500081B0CDF800E00348FFF7FAFCDDF800E0D4
:100A600001B070470050004081B0CDF800E003486D
:100A7000FFF7E2FCDDF800E001B0704700500040F5
:100A800081B0CDF800E00348FFF7E8FCDDF800E0B6
:100A900001B07047004C004081B0CDF800E0034841
:100AA000FFF7DCFCDDF800E001B0704700480040D3
:100AB00081B0CDF800E00348FFF7BEFCDDF800E0B0
:100AC00001B070470048004081B0CDF800E0019DC2
:100AD0002C4610B408B493B28AB201460348FFF71B
:100AE000C3FC02B0DDF800E001B0704700440040F4
:100AF00081B0CDF800E00348FFF7B0FCDDF800E07E
:100B000001B070470044004081B0CDF800E00348D8
:100B1000FFF7A4FCDDF800E001B070470050004092
:100B200081B0CDF800E00348FFF792FCDDF800E06B
:100B300001B070470048004081B0CDF800E0019D51
:100B40002C4610B408B493B28AB201460348FFF7AA
:100B50008BFC02B0DDF800E001B0704700480040B7
:100B600081B0CDF800E0044C2468A047C0B2DDF8A5
:100B700000E001B0704700BF6800002081B0CDF8F0
:100B800000E0044C2468A047C0B2DDF800E001B0EA
:100B9000704700BF6400002081B0CDF800E0094933
:100BA00002B440F2000340F2000240F20001FFF7FD
:100BB0008BFF01B0044A05490A600020DDF800E01F
:100BC00001B0704740150000B5090000600000202A
:100BD00081B0CDF800E0094902B440F2000340F2D0
:100BE000000240F20001FFF7A7FF01B0044A0549E7
:100BF0000A600020DDF800E001B07047AC1500008D
:100C0000E90800006000002081B0CDF800E009494B
:100C100002B440F2000340F2000240F20001FFF78C
:100C200053FF01B0044A05490A600020DDF800E0E6
:100C300001B0704740150000B509000060000020B9
:100C400081B0CDF800E0094902B440F2000340F25F
:100C5000000240F20001FFF733FE01B0044A0549EB
:100C60000A600020DDF800E001B0704718160000AF
:100C7000D10900006000002081B0CDF800E0A9E0BB
:100C8000012905D140F220016548FFF7AFFE04E0DD
:100C900040F220016248FFF7B5FEBBE0012905D113
:100CA00040F208015F48FFF7A1FE04E040F20801AE
:100CB0005C48FFF7A7FEADE0012905D144F2000131
:100CC0005948FFF793FE04E044F200015648FFF74D
:100CD00099FE9FE0012905D140F200415148FFF7FC
:100CE00085FE04E040F200414E48FFF78BFE91E0A4
:100CF000012905D140F600014A48FFF777FE04E0DC
:100D000040F600014748FFF77DFE83E0012905D149
:100D100041F200014348FFF769FE04E041F200019F
:100D20004048FFF76FFE75E0012905D141F200014F
:100D30003D48FFF75BFE04E041F200013A48FFF74F
:100D400061FE67E0012905D140F600013648FFF752
:100D50004DFE04E040F600013348FFF753FE59E032
:100D6000012905D140F240012F48FFF73FFE04E082
:100D700040F240012C48FFF745FE4BE0012905D128
:100D800040F220012848FFF731FE04E040F2200144
:100D90002548FFF737FE3DE0012905D140F240012B
:100DA0002248FFF723FE04E040F240011F48FFF70E
:100DB00029FE2FE0012905D140F280011B48FFF7F1
:100DC00015FE04E040F280011848FFF71BFE21E009
:100DD000012020E000283FF453AF01283FF45EAF2C
:100DE00002283FF469AF03283FF474AF04283FF4AE
:100DF0007FAF05283FF48AAF06283FF495AF072858
:100E0000A0D00828ACD00928B8D00A28C4D00B2814
:100E1000D0D0DDE70020DDF800E001B0704700BF72
:100E2000000801400010014000140140000C014086
:100E300081B0CDF800E0A9E0012905D140F2100110
:100E40006548FFF7D3FD04E040F210016248FFF768
:100E5000D9FDBBE0012905D140F204015F48FFF74D
:100E6000C5FD04E040F204015C48FFF7CBFDADE0B6
:100E7000012905D142F200015948FFF7B7FD04E00E
:100E800042F200015648FFF7BDFD9FE0012905D160
:100E900040F200415148FFF7A9FD04E040F2004153
:100EA0004E48FFF7AFFD91E0012905D140F6000162
:100EB0004A48FFF79BFD04E040F600014748FFF772
:100EC000A1FD83E0012905D141F200014348FFF76C
:100ED0008DFD04E041F200014048FFF793FD75E00D
:100EE000012905D140F201013B48FFF77FFD04E0F5
:100EF00040F201013848FFF785FD67E0012905D17F
:100F000040F200413648FFF771FD04E040F2004135
:100F10003348FFF777FD59E0012905D140F2002160
:100F20002F48FFF763FD04E040F200212C48FFF753
:100F300069FD4BE0012905D140F200112848FFF777
:100F400055FD04E040F200112548FFF75BFD3DE050
:100F5000012905D140F240012248FFF747FD04E096
:100F600040F240011F48FFF74DFD2FE0012905D158
:100F700040F280011B48FFF739FD04E040F2800198
:100F80001848FFF73FFD21E0012020E000283FF452
:100F900053AF01283FF45EAF02283FF469AF032846
:100FA0003FF474AF04283FF47FAF05283FF48AAFC5
:100FB00006283FF495AF0728A0D00828ACD0092810
:100FC000B8D00A28C4D00B28D0D0DDE70020DDF847
:100FD00000E001B0704700BF000801400010014070
:100FE00000140140000C014081B0CDF800E00B4D31
:100FF00000F20C010C6800F208010B68011D0A6880
:101000000168084691B29AB2A3B220B4FFF75CFD22
:1010100001B00020DDF800E001B07047401500008D
:1010200081B0CDF800E00B4D00F20C010C6800F22D
:1010300008010B68011D0A680168084691B29AB25E
:10104000A3B220B4FFF778FD01B00020DDF800E086
:1010500001B07047AC15000000F230010A68044985
:101060000A6000F218010A6802490A60704700BF6E
:101070006C0000207000002081B0CDF800E0017805
:10108000CCB2A0B2034C2468A0470020DDF800E0F9
:1010900001B0704760000020026806490A60011D27
:1010A0000A6805490A6000F208010A6803490A60F3
:1010B000704700BF7400002068000020640000201A
:1010C00081B0CDF800E009E00846FFF7A9FF0AE08B
:1010D0000846FFF789FF06E0012004E00028F3D06E
:1010E0000128F5D0F8E7DDF800E001B07047FFFF18
:1010F00081B0CDF800E0FFF733FDDDF800E001B08E
:101100007047FFFF81B0CDF800E05FFA81F95FFA28
:1011100082FA0FE05FFA8AF15FFA89F0FFF788FE42
:101120000DE05FFA8AF15FFA89F0FFF7A5FD06E0AE
:10113000012004E00028EDD00128F2D0F8E7DDF826
:1011400000E001B07047FFFF81B0CDF800E0FFF78D
:1011500015FDDDF800E001B07047FFFF81B0CDF86C
:1011600000E011E00846FFF733FD16E00846FFF700
:1011700013FD12E00846FFF763FD0EE00846FFF797
:1011800043FD0AE0012008E00028EBD00128EDD063
:101190002028EFD03028F1D0F4E7DDF800E001B0EE
:1011A0007047FFFF81B0CDF800E003460846FFF727
:1011B00073FF1846FFF750FFDDF800E001B07047FD
:1011C00083B0CDF800E0024610460D228DF80820CD
:1011D0000A228DF809201FE0FFF74EFF23E0027876
:1011E0002AB10190FFF748FF0198401CF7E71AE089
:1011F00002782AB10190FFF73FFF0198401CF7E702
:1012000002AA1046FFF738FF0DF109021046FFF75A
:1012100033FF08E0062007E00029DDD00129DED0F9
:101220000229E5D0F6E70020DDF800E003B07047C2
:1012300081B01CF8019B0BF8019BBBEB0A0FF8D1A6
:1012400001B0704781B01548006840F001011348B3
:1012500001601349134801601048016812480140B9
:101260000E4801600D4801686FF4802001400B4872
:1012700001600C4801686FF4FE00014009480160FC
:10128000064801686FF0A0500140044801604FF02B
:1012900000010648016001B0704700BF0010024025
:1012A0000000FFF004100240FFFFF6FE2C10024089
:1012B00081B04FF000094FF0000CBDEB0A0F04DCC9
:1012C000BDEB0B0F01DBD446EA464BF8049BBBEBAE
:1012D0000A0FFAD1BCEB0A0F05DDE246D9F800B0DF
:1012E0000BF1040BF1E701B07047FFFF82B0CDF8BE
:1012F00000E0FFF729FF38B1FFF7FAFE8DF8040090
:1013000001A80021FFF75CFFDDF800E002B07047A4
:1013100081B0CDF800E00E490E48FFF743FF0E48BC
:101320000221FFF74DFF0D480221FFF749FF0C484E
:101330000221FFF745FF0B480221FFF741FF0A4852
:101340000221FFF73DFFDDF800E001B0704700BF6C
:101350006417000084160000000000201300002025
:1013600026000020390000204C000020020406085E
:1013700081B0CDF800E0012200210020FFF7C2FE7D
:10138000002206210020FFF7BDFE0C480146002088
:10139000FFF796FE42F280512020FFF7DFFE44F671
:1013A0007F77C0F2120700BF00BF7F1EFDD100BFD4
:1013B00000BF00BFDDF800E001B070475417000027
:1013C00081B002490248016001B070474019010034
:1013D0007800002081B0FEE701B0704700F00EF801
:1013E00000F006FAFFF7ECFF00F0C2F9FFF7C0FFCC
:1013F000FFF78EFFFFF77AFFFCE7FEE781B0CDF83D
:1014000000E0464A464B474C47494BF68030814204
:1014100006D94648006840F002014448016011E0E6
:1014200045F6C050814206D94048006840F00101AD
:101430003E48016006E03D4801686FF0070001404A
:101440003A480160FFF7FEFE3948036039480460FE
:10145000394802EA00013948016002F0010040B158
:1014600019463648006800F00200002800D1F8E76D
:1014700000E0194602F4803040B10B462F48006866
:1014800000F40030002800D1F8E700E00B4602F03D
:10149000805068B12948006840F0805127480160B9
:1014A0002648006800F00050002800D1F8E7FFE768
:1014B00002F0806078B12148006840F080611F48E8
:1014C000016011461A461D48006800F000600028BF
:1014D00000D1F8E701E011461A4601F0807070B1C2
:1014E0001648006840F080711448016011461348A6
:1014F000006800F0007000B9F9E70A46FFE70C4801
:10150000006800F00C01900000F00C00814200D057
:10151000F5E7DDF800E001B0704700BF810001058C
:1015200002841D0044060100401901000020024011
:10153000041002402C100240FFFF0F000010024078
:101540003500000036000000FFFFFFFF0000000034
:10155000000000000000000000000000000000008B
:10156000000000000000000000000000000000007B
:101570000000000018080000180000000000000033
:10158000000000000000000000000000000000005B
:10159000000000000000000000000000000000004B
:1015A00000000000000000000800000838000000F3
:1015B00039000000FFFFFFFF0000000000000000F6
:1015C000000000000000000000000000000000001B
:1015D000000000000000000000000000000000000B
:1015E00018080000180000000000000000000000C3
:1015F00000000000000000000000000000000000EB
:1016000000000000000000000000000000000000DA
:101610000000000030001408090000000A0000006B
:10162000FFFFFFFF000000000000000000000000BE
:1016300000000000000000000000000000000000AA
:10164000000000000000000000000000180800007A
:101650001800000000000000000000000000000072
:10166000000000000000000000000000000000007A
:10167000000000000000000000000000000000006A
:1016800004000000FFFFFFFFFFFFFFFFFFFFFFFF62
:10169000FFFFFFFFFFFFFFFFFFFFFFFFFFFFFFFF5A
:1016A000FFFFFFFFFFFFFFFFFFFFFFFFFFFFFFFF4A
:1016B000FFFFFFFFFFFFFFFFFFFFFFFFFFFFFFFF3A
:1016C000FFFFFFFFFFFFFFFFFFFFFFFFFFFFFFFF2A
:1016D000FFFFFFFFFFFFFFFFFFFFFFFFFFFFFFFF1A
:1016E000FFFFFFFF2D2D2D2D2D2D2D2D2D2D2D2DE2
:1016F0002D2D2D2D2D2D002020202020495220433E
:101700006C69636B2020202020002D2D2D2D2D2D88
:101710002D2D2D2D2D2D2D2D2D2D2D2D002020204D
:101720002020524543454956455220202020200084
:101730002D2D2D2D2D2D2D2D2D2D2D2D2D2D2D2DD9
:101740002D2D000000000001020304010203040625
:10175000070809FF802500000000000000000000CD
:1017600000000000E9080000B10A0000210B0000A1
:1017700000B5DFF814B0DFF814A0DFF814C0FFF7ED
:1017800057FD00BD704700BF000000205F00002033
:10179000E4160000FFFFFFFFFFFFFFFFFFFFFFFF5B
:1017A000FFFFFFFFFFFFFFFFFFFFFFFFFFFFFFFF49
:1017B000FFFFFFFFFFFFFFFFFFFFFFFFFFFFFFFF39
:1017C000FFFFFFFFFFFFFFFFFFFFFFFFFFFFFFFF29
:1017D000FFFFFFFFFFFFFFFFFFFFFFFFFFFFFFFF19
:1017E000FFFFFFFFFFFFFFFFFFFFFFFFFFFFFFFF09
:1017F00000B5DFF810B0DFF810A0FFF759FD00BD0D
:10180000704700BF000000208C000020FFFFFFFF9A
:00000001FF
