:10000000B1EF09F00000000000EF00F00000000078
:0A0010000000000000000000F3D71C
:0A001C00000EA4BA010E006E1200DF
:0A002600000E80B0010E006E120003
:0C003000000E0F0121B3010E006E120043
:0A003C00000EACB2010E006E1200BF
:0A004600000E82B6010E006E1200DB
:0A005000000E82B8010E006E1200CF
:0A005A00000E82BA010E006E1200C3
:0A006400000E84B0010E006E1200C1
:0A006E00000E81B0010E006E1200BA
:0A007800000E80B2010E006E1200AF
:0A008200000E86B0010E006E1200A1
:0A008C00000E84B2010E006E120097
:0A009600000E82B0010E006E120091
:0A00A000000E9EBA010E006E120061
:0E00AA000001AAB102D08B9601D08B86120005
:0E00B8000001AAB102D08B9801D08B881200F3
:0E00C6000001AAB102D08B9A01D08B8A1200E1
:0E00D4000001AAB102D0899401D089841200E3
:0E00E2000001AAB102D08D9601D08D861200C9
:0E00F0000001AAB102D08D9401D08D841200BF
:0E00FE000001AAB102D08F9001D08F801200B5
:0E010C000001AAB102D08B9601D08B861200A2
:0E011A000001AAB102D08B9801D08B88120090
:10012800AECF01F0ABA202D0AB98AB8801C000F013
:020138001200B3
:0E013A000001AAB102D08A9401D08A8412007A
:0E0148000001AAB102D08F9401D08F84120062
:0E0156000001AAB102D08F9201D08F82120058
:0A016400000E82B2010E006E1200C0
:0A016E00000E82B6010E006E1200B2
:0A017800000E82B8010E006E1200A6
:0A018200000E82B6010E006E12009E
:0A018C00000E82BE010E006E12008C
:0A019600000E80B4010E006E12008E
:0A01A000000E82B6010E006E120080
:0A01AA00000E82B8010E006E120074
:0A01B400000E86B4010E006E12006A
:0A01BE00000E86B2010E006E120062
:0A01C800000E81B4010E006E12005B
:0A01D200000E84B4010E006E12004E
:0A01DC00000E84B6010E006E120042
:0A01E600000E82B4010E006E12003C
:0E01F0000001AAB102D08B9801D08B881200BA
:1001FE001DCF01F00F0122A302D02299228901C046
:04020E0000F01200EA
:0A021200000E80B8010E006E12000D
:0A021C00000E82B8010E006E120001
:0A022600000E82BE010E006E1200F1
:0A023000000E82BC010E006E1200E9
:0A023A00000E82BA010E006E1200E1
:0A024400000E82B6010E006E1200DB
:0A024E00000E81B2010E006E1200D6
:0A025800000E82BA010E006E1200C3
:0A026200000E82BC010E006E1200B7
:0A026C00000E82B8010E006E1200B1
:0A027600000E82B8010E006E1200A7
:0A028000000E82B6010E006E12009F
:0E028A000001AAB102D08A9001D08A80120031
:0E0298000001AAB102D08B9601D08B86120015
:0E02A6000001AAB102D08B9401D08B8412000B
:0E02B4000001AAB102D08B9801D08B881200F5
:0E02C2000001AAB102D08B9C01D08B8C1200DF
:0E02D0000001AAB102D08B9A01D08B8A1200D5
:0E02DE00ACB202D00000FCD7AAC0ADFF1200E7
:0E02EC000001AAB102D08B9201D08B821200C9
:1002FA000F0121B302D00000FBD7AAC01CFF1200D5
:0E030A000001AAB102D08B9801D08B8812009E
:0E0318000001AAB102D0899001D089801200A4
:0E0326000001AAB102D08D9001D08D8012008E
:0E0334000001AAB102D08B9E01D08B8E120068
:0E0342000001AAB102D08B9E01D08B8E12005A
:0E0350000001AAB102D08A9201D08A82120066
:0E035E000001AAB102D08B9601D08B8612004E
:0E036C000001AAB102D08B9801D08B8812003C
:0E037A000001AAB102D08B9601D08B86120032
:0E0388000001AAB102D08B9C01D08B8C120018
:0E0396000001AAB102D08D9201D08D8212001A
:0E03A4000001AAB102D08B9601D08B86120008
:0E03B2000001AAB102D0899201D08982120006
:0E03C0000001AAB102D08B9A01D08B8A1200E4
:0E03CE000001AAB102D0899801D089881200DE
:0E03DC000001AAB102D08B9001D08B801200DC
:1003EA00FA0E00018C6F020E8D6FAA0E8E6F000E30
:1003FA008F6FFE0E986F010E996F000E9A6F000EA6
:10040A009B6F1C0E946F000E956F000E966F000E78
:10041A00976F300E906F000E916F000E926F000E64
:10042A00936F0F01218B900E226F98849892A4AA41
:0A043A0003D01DCF00F0FBD7120025
:10044400DE0E00018C6F020E8D6FAA0E8E6F000EF1
:100454008F6F280E986F010E996F000E9A6F000E21
:100464009B6FA00E946F000E956F000E966F000E9A
:10047400976F3C0E906F000E916F000E926F000EFE
:10048400936FAC8A900EAB6E948E949C9EAA03D00C
:08049400AECF00F0FBD712000F
:10049C00F250026EF29E0500FF6A0150FE6E005093
:0804AC00FD6E02BEF28E12008B
:1004B40021D0CF0EAF6EAC94C3DF6BD0670EAF6E9E
:1004C400AC94BEDF66D0CF0EAF6EAC84B9DF61D022
:1004D400670EAF6EAC84B4DF5CD0440EAF6EAC84F8
:1004E400AFDF57D0220EAF6EAC84AADF52D0060E17
:1004F400006E58D00001000E006EA71908E10050EC
:10050400A61905E1120EA51902E1A451C00AD1E011
:10051400000E006EA71908E10050A61905E1250E8A
:10052400A51902E1A451800AC9E0000E006EA719C2
:1005340008E10050A61905E14B0EA51902E1A451EA
:10054400000AC1E0000E006EA71908E10050A619C8
:1005540005E1960EA51902E1A451000AB9E0000EC6
:10056400006EA71908E10050A61905E1E10EA519CE
:1005740002E1A451000AB1E0A751000A08E1A65122
:10058400010A05E1A551C20A02E1A451000AAAE048
:10059400AED7DE0E886F020E896FAA0E8A6F000E28
:0605A4008B6F006A1200DB
:0605AA00050E006E1200B8
:1005B00038D00F0120870D0E1F6F040E1E6F21858E
:1005C00014DF7ED00F012087060E1F6F820E1E6F74
:1005D00021850BDF75D00F012087030E1F6F400EA2
:1005E0001E6F218502DF6CD00F012087010E1F6F67
:1005F000A00E1E6F2185F9DE63D00F012087010E4A
:100600001F6F150E1E6F2185F0DE5AD00F01208757
:100610001F6B8A0E1E6F2185E8DE52D0060E006E1B
:1006200059D0000E006E0001A71908E10050A6196C
:1006300005E1120EA51902E1A451C00ABAE0000EAC
:10064000006EA71908E10050A61905E1250EA519AD
:1006500002E1A451800AB6E0000E006EA71908E17D
:100660000050A61905E14B0EA51902E1A451000A9C
:10067000B2E0000E006EA71908E10050A61905E1CE
:10068000960EA51902E1A451000AAEE0000E006E1C
:10069000A71908E10050A61905E1E10EA51902E12C
:1006A000A451000AAAE0A751000A08E1A651010AD4
:1006B00005E1A551C20A02E1A451000AA7E0AED7A4
:1006C0000001FA0E886F020E896FAA0E8A6F000E63
:0606D0008B6F006A1200AE
:1006D60021D0CF0EAF6EAC94B2DE6BD0670EAF6E8C
:1006E600AC94ADDE66D0CF0EAF6EAC84A8DE61D022
:1006F600670EAF6EAC84A3DE5CD0440EAF6EAC84E6
:100706009EDE57D0220EAF6EAC8499DE52D0060E16
:10071600006E58D00001000E006EA71908E10050C7
:10072600A61905E1120EA51902E1A451C00AD1E0ED
:10073600000E006EA71908E10050A61905E1250E66
:10074600A51902E1A451800AC9E0000E006EA7199E
:1007560008E10050A61905E14B0EA51902E1A451C6
:10076600000AC1E0000E006EA71908E10050A619A4
:1007760005E1960EA51902E1A451000AB9E0000EA2
:10078600006EA71908E10050A61905E1E10EA519AA
:1007960002E1A451000AB1E0A751000A08E1A651FE
:1007A600010A05E1A551C20A02E1A451000AAAE024
:1007B600AED7DE0E886F020E896FAA0E8A6F000E04
:0607C6008B6F006A1200B7
:1007CC0059D00001A5B102D0929201D092820F01B2
:1007DC00259376D00001A5B102D0929801D09288D1
:1007EC006FD00001A5B102D0969201D0968268D04C
:1007FC000001A5B102D0949601D0948661D000017D
:10080C00A5B102D0949801D094885AD00001A5B11A
:10081C0002D0949A01D0948A53D00001A5B102D091
:10082C00949401D094844CD00001A5B102D0939241
:10083C0001D0938245D00001A5B102D0949E01D085
:10084C00948E3ED00001A5B102D0949C01D0948C22
:10085C0037D00001A5B102D0949601D0948630D047
:10086C000001A5B102D0949801D0948829D0010E32
:10087C00006E28D00001A451000AA3E0A451010A83
:10088C00A9E0A451020AADE0A451030AB1E0A451BD
:10089C00040AB5E0A451050AB9E0A451060ABDE06A
:1008AC00A451070AC1E0A451080AC5E0A451090AE1
:1008BC00C9E0A4510A0ACDE0A4510B0AD1E0D7D764
:0608CC00000E006E120098
:1008D2005DD00001A5B102D0929401D092840F01A3
:1008E20025957AD00001A5B102D0969601D09686C0
:1008F20073D00001A5B102D0969401D096846CD039
:100902000001A5B102D0949601D0948665D0000171
:10091200A5B102D0949801D094885ED00001A5B10F
:1009220002D0949A01D0948A57D00001A5B102D086
:10093200989001D0988050D00001A5B102D0939434
:1009420001D0938449D00001A5B102D0989401D07E
:1009520098840F01239540D00001A5B102D098924E
:1009620001D098820F01239337D00001A5B102D0A4
:10097200949601D0948630D00001A5B102D094980B
:1009820001D0948829D0010E006E28D00001A45114
:10099200000A9FE0A451010AA5E0A451020AA9E0BD
:1009A200A451030AADE0A451040AB1E0A451050A1E
:1009B200B5E0A451060AB9E0A451070ABDE0A4516A
:1009C200080AC1E0A451090AC7E0A4510A0ACDE00D
:0E09D200A4510B0AD1E0D7D7000E006E120020
:1009E000A4C0A7F0A5C0A8F0A6C0A9F021D0CF0E42
:1009F000AF6EAC9427DDD9D0670EAF6EAC9422DD1C
:100A0000D4D0CF0EAF6EAC841DDDCFD0670EAF6EED
:100A1000AC8418DDCAD0440EAF6EAC8413DDC5D0F3
:100A2000220EAF6EAC840EDDC0D0050E006EBFD0BE
:100A3000A7C0F6FFA8C0F7FFA9C0F8FF0900F5CFCF
:100A400001F00900F5CF02F00900F5CF03F009002D
:100A5000F5CF04F0000E006E041808E100500318F2
:100A600005E1120E021802E10150C00AC0E0A7C061
:100A7000F6FFA8C0F7FFA9C0F8FF0900F5CF01F005
:100A80000900F5CF02F00900F5CF03F00900F5CF1A
:100A900004F0000E006E041808E10050031805E190
:100AA000250E021802E10150800AA6E0A7C0F6FF59
:100AB000A8C0F7FFA9C0F8FF0900F5CF01F00900B1
:100AC000F5CF02F00900F5CF03F00900F5CF04F0EF
:100AD000000E006E041808E10050031805E14B0EEB
:100AE000021802E10150000A8CE0A7C0F6FFA8C07E
:100AF000F7FFA9C0F8FF0900F5CF01F00900F5CF15
:100B000002F00900F5CF03F00900F5CF04F0000E64
:100B1000006E041808E10050031805E1960E021853
:100B200002E10150000AD8B471D7A7C0F6FFA8C0EF
:100B3000F7FFA9C0F8FF0900F5CF01F00900F5CFD4
:100B400002F00900F5CF03F00900F5CF04F0000E24
:100B5000006E041808E10050031805E1E10E0218C8
:100B600002E10150000AD8B456D7A7C0F6FFA8C0CA
:100B7000F7FFA9C0F8FF0900F5CF01F00900F5CF94
:100B800002F00900F5CF03F00900F5CF04F004509E
:100B9000000A08E10350010A05E10250C20A02E11D
:100BA0000150000AD8B43CD740D7000E006E1200A6
:100BB000A4C0A7F0A5C0A8F0A6C0A9F021D0CF0E70
:100BC000AF6EAC943FDCD9D0670EAF6EAC943ADC1C
:100BD000D4D0CF0EAF6EAC8435DCCFD0670EAF6E05
:100BE000AC8430DCCAD0440EAF6EAC842BDCC5D0F4
:100BF000220EAF6EAC8426DCC0D0050E006EBFD0D6
:100C0000A7C0F6FFA8C0F7FFA9C0F8FF0900F5CFFD
:100C100001F00900F5CF02F00900F5CF03F009005B
:100C2000F5CF04F0000E006E041808E10050031820
:100C300005E1120E021802E10150C00AC0E0A7C08F
:100C4000F6FFA8C0F7FFA9C0F8FF0900F5CF01F033
:100C50000900F5CF02F00900F5CF03F00900F5CF48
:100C600004F0000E006E041808E10050031805E1BE
:100C7000250E021802E10150800AA6E0A7C0F6FF87
:100C8000A8C0F7FFA9C0F8FF0900F5CF01F00900DF
:100C9000F5CF02F00900F5CF03F00900F5CF04F01D
:100CA000000E006E041808E10050031805E14B0E19
:100CB000021802E10150000A8CE0A7C0F6FFA8C0AC
:100CC000F7FFA9C0F8FF0900F5CF01F00900F5CF43
:100CD00002F00900F5CF03F00900F5CF04F0000E93
:100CE000006E041808E10050031805E1960E021882
:100CF00002E10150000AD8B471D7A7C0F6FFA8C01E
:100D0000F7FFA9C0F8FF0900F5CF01F00900F5CF02
:100D100002F00900F5CF03F00900F5CF04F0000E52
:100D2000006E041808E10050031805E1E10E0218F6
:100D300002E10150000AD8B456D7A7C0F6FFA8C0F8
:100D4000F7FFA9C0F8FF0900F5CF01F00900F5CFC2
:100D500002F00900F5CF03F00900F5CF04F00450CC
:100D6000000A08E10350010A05E10250C20A02E14B
:100D70000150000AD8B43CD740D7000E006E1200D4
:100D800059D00001A5B102D0929001D092800F01FC
:100D9000259176D00001A5B102D0949001D0948025
:100DA0006FD00001A5B102D0969001D0968068D096
:100DB0000001A5B102D0949601D0948661D00001C3
:100DC000A5B102D0949801D094885AD00001A5B161
:100DD00002D0949A01D0948A53D00001A5B102D0D8
:100DE000949201D094824CD00001A5B102D093908E
:100DF00001D0938045D00001A5B102D0949E01D0CE
:100E0000948E3ED00001A5B102D0949C01D0948C68
:100E100037D00001A5B102D0949601D0948630D08D
:100E20000001A5B102D0949801D0948829D0010E78
:100E3000006E28D00001A451000AA3E0A451010AC9
:100E4000A9E0A451020AADE0A451030AB1E0A45103
:100E5000040AB5E0A451050AB9E0A451060ABDE0B0
:100E6000A451070AC1E0A451080AC5E0A451090A27
:100E7000C9E0A4510A0ACDE0A4510B0AD1E0D7D7AA
:060E8000000E006E1200DE
:100E860027D0CF0EAF6EAC9422EC02F070D0670E76
:100E9600AF6EAC9422EC02F06AD0CF0EAF6EAC848B
:100EA60022EC02F064D0670EAF6EAC8422EC02F046
:100EB6005ED0440EAF6EAC8422EC02F058D0220E07
:100EC600AF6EAC8422EC02F052D0060E006E58D003
:100ED6000001000E006EA71908E10050A61905E1F1
:100EE600120EA51902E1A451C00ACBE0000E006E55
:100EF600A71908E10050A61905E1250EA51902E17A
:100F0600A451800AC4E0000E006EA71908E1005043
:100F1600A61905E14B0EA51902E1A451000ABDE090
:100F2600000E006EA71908E10050A61905E1960EFD
:100F3600A51902E1A451000AB6E0000E006EA71939
:100F460008E10050A61905E1E10EA51902E1A45138
:100F5600000AAFE0A751000A08E1A651010A05E11F
:100F6600A551C20A02E1A451000AA9E0AED7DE0EDD
:100F7600886F020E896FAA0E8A6F000E8B6F006A49
:020F8600120057
:0E0F880080C000F081C001F04EEC02F01200BB
:100F96008AC0E1FF8BC0E2FFA4C0E9FFA5C0EAFF5B
:100FA600EECFE6FF88C000F089C001F04EEC02F0FB
:040FB600006A1200BB
:0E0FBA0078C000F079C001F04EEC02F0120099
:100FC800300E0001A425F66E000EA521F76E000E66
:100FD800A621F86E0900F5CF74F00900F5CF75F079
:100FE8000900F5CF76F00900F5CF77F0180EA425A3
:100FF800F66E000EA521F76E000EA621F86E090008
:10100800F5CF7CF00900F5CF7DF00900F5CF7EF033
:081018000900F5CF7FF0120082
:10102000A4C0F6FFA5C0F7FFA6C0F8FF0900F5CFE2
:1010300084F00900F5CF85F00900F5CF86F00900AE
:10104000F5CF87F0040E0001A425F66E000EA52151
:10105000F76E000EA621F86E0900F5CF78F00900B2
:10106000F5CF79F00900F5CF7AF00900F5CF7BF0E4
:10107000080EA425F66E000EA521F76E000EA6211F
:10108000F86E0900F5CF80F00900F5CF81F0090076
:0C109000F5CF82F00900F5CF83F01200CC
:10109C0016D09EC0A4F09FC0A5F06CDE1BD09EC0E5
:1010AC00A4F09FC0A5F0E6EC03F014D09EC0A4F011
:1010BC009FC0A5F008DC0ED0010E006E0BD0000115
:1010CC009D51000AE6E09D51010AE9E09D51020A9A
:0610DC00EDE0F2D7120066
:0410E20052DF1200C7
:1010E6001CD09EC0A4F09FC0A5F0A0C0A6F075DCE1
:1010F6001FD09EC0A4F09FC0A5F0A0C0A6F055DDED
:1011060017D09EC0A4F09FC0A5F0A0C0A6F0D5EC55
:1011160002F00ED0010E006E0BD000019D51000AA8
:10112600E0E09D51010AE5E09D51020AEAE0F2D7AE
:021136001200A5
:0411380040DF120082
:10113C00A0C0A4F0A1C0A5F0A2C0A6F06BDF9DC01A
:0E114C00A4F09EC0A5F09FC0A6F038DF1200F0
:10115A002ED09EC0A4F09FC0A5F0A0C0A6F0A1C04A
:10116A00A7F05AEC02F031D09EC0A4F09FC0A5F0BF
:10117A00A0C0A6F0A1C0A7F06BEC03F026D09EC0D9
:10118A00A4F09FC0A5F0A0C0A6F0A1C0A7F0D8EC1B
:10119A0002F01BD09EC0A4F09FC0A5F0A0C0A6F08C
:1011AA00A1C0A7F06BDE11D0010E006E0ED00001B7
:1011BA009D51000ACEE09D51010AD6E09D51020AD6
:0C11CA00DEE09D51100AE6E0EFD71200B5
:1011D6009DC0A0F09EC0A1F00D0E0001A26F0A0EE8
:1011E600A36F35D0A0C0A4F0A1C0A5F0D1DE3AD03F
:1011F600A0C0E9FFA1C0EAFFEE5209E0A0C0A4F03A
:10120600A1C0A5F0C5DE0001A04BA12BF1D72AD0C5
:10121600A0C0E9FFA1C0EAFFEE5209E0A0C0A4F019
:10122600A1C0A5F0B5DE0001A04BA12BF1D70001AE
:10123600A20EA46F000EA56FABDEA30E0001A46F75
:10124600000EA56FA5DE0ED0060E006E0CD00001B6
:101256009F51000AC7E09F51010ACAE09F51020A46
:08126600D7E0F2D7006A120084
:10126E0000019D6B9E6B010E9F6F11DF00019D6B48
:10127E00060E9E6F9F6B0BDF00019D6B3B0E9E6FEC
:10128E00140E9F6F000EA06F27DF100E00019D6FD2
:10129E00800E9E6F250E9F6F000EA06FA16F56DF02
:1012AE00090E0B6E1E0E0C6EE40E0D6E0D2EFED77D
:0C12BE000C2EFCD70B2EFAD700001200FB
:1012CA000900F5CFE6FF0006FBE10106F9E112008D
:1012DA0003DF00520AE02BDF00C09CF09C0E0001E5
:0C12EA009D6F000E9E6F9F6B71DF120065
:1012F600700E00019D6F130E9E6F000E9F6F2F0ED6
:10130600A06F140EA16F000EA26F15DF150E9D6F54
:10131600000E9E6F020E9F6F5BDF4E0E00019D6FEB
:10132600000E9E6F020E9F6F53DF610E00019D6FD0
:10133600000E9E6F020E9F6F4BDF3B0E00019D6FEE
:10134600000E9E6F020E9F6F43DF280E00019D6FF9
:0C135600000E9E6F020E9F6F3BDF120026
:0E13620020EC0AF083DFC6DFB7DFFED7FFD72F
:1014400010EE15F05F0E006E010E016ED00EF66EFE
:0E145000130EF76E000EF86E65EC09F0120038
:101370001803AA00DC03AA002603AA009802AA0008
:101380000A03AA00D002AA00EC02AA008A02AA005C
:101390003403AA00C202AA00A403AA00F001AA0012
:1013A00026000000960000006400000046000000D7
:1013B000500000003A020000640100006E000000CE
:1013C0002602000030020000440200001C0200005F
:1013D0002D2D2D2D2D2D2D2D2D2D2D2D2D2D2D2D3D
:0313E0002D2D00B0
:1013E3002D2D2D2D2D2D2D2D2D2D2D2D2D2D2D2D2A
:0313F3002D2D009D
:1013F6002020202020524543454956455220202092
:03140600202000A3
:101409002020202020495220436C69636B20202032
:0314190020200090
:10141C002D2D2D2D2D2D2D2D2D2D2D2D2D2D2D2DF0
:03142C002D2D0063
:0C142F00DE02AA0028010000A00000005E
:04143B008025000008
:020000040030CA
:0E00000015137F7CF98B91FFFFC0FFE0FF40DE
:00000001FF
